{
  "_format": "hh-sol-artifact-1",
  "contractName": "MusicPortal",
  "sourceName": "contracts/MusicPortal.sol",
  "abi": [
    {
      "inputs": [],
      "stateMutability": "nonpayable",
      "type": "constructor"
    },
    {
      "anonymous": false,
      "inputs": [
        {
          "indexed": true,
          "internalType": "address",
          "name": "from",
          "type": "address"
        },
        {
          "indexed": false,
          "internalType": "string",
          "name": "link",
          "type": "string"
        },
        {
          "indexed": false,
          "internalType": "string",
          "name": "description",
          "type": "string"
        },
        {
          "indexed": false,
          "internalType": "uint256",
          "name": "timestamp",
          "type": "uint256"
        }
      ],
      "name": "NewSongRec",
      "type": "event"
    },
    {
      "inputs": [],
      "name": "getAllRecs",
      "outputs": [
        {
          "components": [
            {
              "internalType": "address",
              "name": "reccomender",
              "type": "address"
            },
            {
              "internalType": "string",
              "name": "link",
              "type": "string"
            },
            {
              "internalType": "string",
              "name": "description",
              "type": "string"
            },
            {
              "internalType": "uint256",
              "name": "timestamp",
              "type": "uint256"
            }
          ],
          "internalType": "struct MusicPortal.Reccomendation[]",
          "name": "",
          "type": "tuple[]"
        }
      ],
      "stateMutability": "view",
      "type": "function"
    },
    {
      "inputs": [],
      "name": "getTotalRecs",
      "outputs": [
        {
          "internalType": "uint256",
          "name": "",
          "type": "uint256"
        }
      ],
      "stateMutability": "view",
      "type": "function"
    },
    {
      "inputs": [
        {
          "internalType": "string",
          "name": "_link",
          "type": "string"
        },
        {
          "internalType": "string",
          "name": "_description",
          "type": "string"
        }
      ],
      "name": "makeRec",
      "outputs": [],
      "stateMutability": "nonpayable",
      "type": "function"
    }
  ],
  "bytecode": "0x60806040523480156200001157600080fd5b506200004160405180606001604052806023815260200162000f85602391396200004760201b620004311760201c565b620001db565b620000e7816040516024016200005e919062000154565b6040516020818303038152906040527f41304fac000000000000000000000000000000000000000000000000000000007bffffffffffffffffffffffffffffffffffffffffffffffffffffffff19166020820180517bffffffffffffffffffffffffffffffffffffffffffffffffffffffff8381831617835250505050620000ea60201b60201c565b50565b60008151905060006a636f6e736f6c652e6c6f679050602083016000808483855afa5050505050565b6000620001208262000178565b6200012c818562000183565b93506200013e81856020860162000194565b6200014981620001ca565b840191505092915050565b6000602082019050818103600083015262000170818462000113565b905092915050565b600081519050919050565b600082825260208201905092915050565b60005b83811015620001b457808201518184015260208101905062000197565b83811115620001c4576000848401525b50505050565b6000601f19601f8301169050919050565b610d9a80620001eb6000396000f3fe608060405234801561001057600080fd5b50600436106100415760003560e01c80631faadaf4146100465780634920a08214610064578063dbb5de5814610080575b600080fd5b61004e61009e565b60405161005b9190610a5c565b60405180910390f35b61007e6004803603810190610079919061073c565b6100cc565b005b61008861024e565b6040516100959190610949565b60405180910390f35b60006100c4604051806060016040528060218152602001610d09602191396000546104ca565b600054905090565b60016000808282546100de9190610b33565b925050819055506101096040518060600160405280603b8152602001610d2a603b9139338484610566565b600160405180608001604052803373ffffffffffffffffffffffffffffffffffffffff16815260200184815260200183815260200142815250908060018154018082558091505060019003906000526020600020906004020160009091909190915060008201518160000160006101000a81548173ffffffffffffffffffffffffffffffffffffffff021916908373ffffffffffffffffffffffffffffffffffffffff16021790555060208201518160010190805190602001906101ce929190610631565b5060408201518160020190805190602001906101eb929190610631565b506060820151816003015550503373ffffffffffffffffffffffffffffffffffffffff167fce7631a444fd8ae3241b37dde759e8ca474e514e680dcf581bb4b38a93ffe94c838342604051610242939291906109e7565b60405180910390a25050565b60606001805480602002602001604051908101604052809291908181526020016000905b8282101561042857838290600052602060002090600402016040518060800160405290816000820160009054906101000a900473ffffffffffffffffffffffffffffffffffffffff1673ffffffffffffffffffffffffffffffffffffffff1673ffffffffffffffffffffffffffffffffffffffff1681526020016001820180546102fb90610c07565b80601f016020809104026020016040519081016040528092919081815260200182805461032790610c07565b80156103745780601f1061034957610100808354040283529160200191610374565b820191906000526020600020905b81548152906001019060200180831161035757829003601f168201915b5050505050815260200160028201805461038d90610c07565b80601f01602080910402602001604051908101604052809291908181526020018280546103b990610c07565b80156104065780601f106103db57610100808354040283529160200191610406565b820191906000526020600020905b8154815290600101906020018083116103e957829003601f168201915b5050505050815260200160038201548152505081526020019060010190610272565b50505050905090565b6104c781604051602401610445919061096b565b6040516020818303038152906040527f41304fac000000000000000000000000000000000000000000000000000000007bffffffffffffffffffffffffffffffffffffffffffffffffffffffff19166020820180517bffffffffffffffffffffffffffffffffffffffffffffffffffffffff8381831617835250505050610608565b50565b61056282826040516024016104e0929190610a2c565b6040516020818303038152906040527f9710a9d0000000000000000000000000000000000000000000000000000000007bffffffffffffffffffffffffffffffffffffffffffffffffffffffff19166020820180517bffffffffffffffffffffffffffffffffffffffffffffffffffffffff8381831617835250505050610608565b5050565b61060284848484604051602401610580949392919061098d565b6040516020818303038152906040527f245986f2000000000000000000000000000000000000000000000000000000007bffffffffffffffffffffffffffffffffffffffffffffffffffffffff19166020820180517bffffffffffffffffffffffffffffffffffffffffffffffffffffffff8381831617835250505050610608565b50505050565b60008151905060006a636f6e736f6c652e6c6f679050602083016000808483855afa5050505050565b82805461063d90610c07565b90600052602060002090601f01602090048101928261065f57600085556106a6565b82601f1061067857805160ff19168380011785556106a6565b828001600101855582156106a6579182015b828111156106a557825182559160200191906001019061068a565b5b5090506106b391906106b7565b5090565b5b808211156106d05760008160009055506001016106b8565b5090565b60006106e76106e284610a9c565b610a77565b9050828152602081018484840111156106ff57600080fd5b61070a848285610bc5565b509392505050565b600082601f83011261072357600080fd5b81356107338482602086016106d4565b91505092915050565b6000806040838503121561074f57600080fd5b600083013567ffffffffffffffff81111561076957600080fd5b61077585828601610712565b925050602083013567ffffffffffffffff81111561079257600080fd5b61079e85828601610712565b9150509250929050565b60006107b483836108c1565b905092915050565b6107c581610b89565b82525050565b6107d481610b89565b82525050565b60006107e582610add565b6107ef8185610b00565b93508360208202850161080185610acd565b8060005b8581101561083d578484038952815161081e85826107a8565b945061082983610af3565b925060208a01995050600181019050610805565b50829750879550505050505092915050565b600061085a82610ae8565b6108648185610b11565b9350610874818560208601610bd4565b61087d81610cf7565b840191505092915050565b600061089382610ae8565b61089d8185610b22565b93506108ad818560208601610bd4565b6108b681610cf7565b840191505092915050565b60006080830160008301516108d960008601826107bc565b50602083015184820360208601526108f1828261084f565b9150506040830151848203604086015261090b828261084f565b9150506060830151610920606086018261092b565b508091505092915050565b61093481610bbb565b82525050565b61094381610bbb565b82525050565b6000602082019050818103600083015261096381846107da565b905092915050565b600060208201905081810360008301526109858184610888565b905092915050565b600060808201905081810360008301526109a78187610888565b90506109b660208301866107cb565b81810360408301526109c88185610888565b905081810360608301526109dc8184610888565b905095945050505050565b60006060820190508181036000830152610a018186610888565b90508181036020830152610a158185610888565b9050610a24604083018461093a565b949350505050565b60006040820190508181036000830152610a468185610888565b9050610a55602083018461093a565b9392505050565b6000602082019050610a71600083018461093a565b92915050565b6000610a81610a92565b9050610a8d8282610c39565b919050565b6000604051905090565b600067ffffffffffffffff821115610ab757610ab6610cc8565b5b610ac082610cf7565b9050602081019050919050565b6000819050602082019050919050565b600081519050919050565b600081519050919050565b6000602082019050919050565b600082825260208201905092915050565b600082825260208201905092915050565b600082825260208201905092915050565b6000610b3e82610bbb565b9150610b4983610bbb565b9250827fffffffffffffffffffffffffffffffffffffffffffffffffffffffffffffffff03821115610b7e57610b7d610c6a565b5b828201905092915050565b6000610b9482610b9b565b9050919050565b600073ffffffffffffffffffffffffffffffffffffffff82169050919050565b6000819050919050565b82818337600083830152505050565b60005b83811015610bf2578082015181840152602081019050610bd7565b83811115610c01576000848401525b50505050565b60006002820490506001821680610c1f57607f821691505b60208210811415610c3357610c32610c99565b5b50919050565b610c4282610cf7565b810181811067ffffffffffffffff82111715610c6157610c60610cc8565b5b80604052505050565b7f4e487b7100000000000000000000000000000000000000000000000000000000600052601160045260246000fd5b7f4e487b7100000000000000000000000000000000000000000000000000000000600052602260045260246000fd5b7f4e487b7100000000000000000000000000000000000000000000000000000000600052604160045260246000fd5b6000601f19601f830116905091905056fe5765206861766520256420746f74616c20726563636f6d656e646174696f6e732125732068617320676976656e20726563636f6d656e646174696f6e2077697468206c696e6b20257320616e64206465736372697074696f6e202573a26469706673582212202590ea2530fcc04a1b57a8998bb1cb29d4b037e1f47a8d4d79c23fa517bd0c7664736f6c63430008040033416e74277320466972737420536d61727420436f6e74726163742050726f6a65637421",
  "linkReferences": {},
  "deployedLinkReferences": {}
}